:100000000C9462000C948A000C948A000C948A0070
:100010000C948A000C948A000C948A000C948A0038
:100020000C948A000C948A000C948A000C948A0028
:100030000C948A000C948A000C948A000C948A0018
:100040000C94C30A0C948A000C94390D0C947C0D0A
:100050000C948A000C9429020C948A000C948A0057
:100060000C948A000C948A00000000070002010032
:100070000003040600000000000000000102040864
:100080001020408001020408102001020408102002
:10009000040404040404040402020202020203032E
:1000A00003030303000000002300260029000000D2
:1000B0000000250028002B0000000000240027007D
:1000C0002A003C0E11241FBECFEFD8E0DEBFCDBF0B
:1000D00011E0A0E0B1E0EAEDFDE102C005900D9273
:1000E000A03FB107D9F713E0A0EFB1E001C01D9226
:1000F000A331B107E1F710E0C4ECD0E004C02297CF
:10010000FE010E94E70EC23CD107C9F70E949B0B7B
:100110000C94EB0E0C9400002F923F924F925F9242
:100120006F927F928F929F92AF92BF92CF92DF9207
:10013000EF92FF920F931F93CF93DF93CDB7DEB76C
:100140002A970FB6F894DEBF0FBECDBF69837A83BE
:100150008B839C83FA01CA0164EB70E00E94B00EAD
:10016000062FC0903402D0903502862F90E02CE408
:100170003FEF829FB001839F700D929F700D1124FD
:100180006E0F7F1F882777FD8095982F960140E09E
:1001900050E00E947D0E24EB30E040E050E00E94F1
:1001A000C30EE0913802F0913902E20FF31FCF0144
:1001B000B6010E949C0EA02FA60F81E090E0EC15E6
:1001C000FD0510F480E090E08C9D90018D9D300D38
:1001D0009C9D300D11248F01021B130B4091840054
:1001E00050918500445D5E4F609132027091330200
:1001F00081E090E04617570710F480E090E0869F7A
:100200009001879F300D969F300D1124CA01821BEB
:10021000930B8017910740F098012C0D3D1D82171C
:10022000930710F4AF5F8901409136025091370275
:10023000400F511F81E090E04617570710F480E00F
:1002400090E0869F9001879F300D969F300D11247E
:10025000CA01821B930B9E838D83A8014C0D5D1DEB
:1002600081E090E04617570710F480E090E0869F09
:100270009001879F300D969F300D1124FA01E21BEB
:10028000F30BF887EF834D815E814C0D5D1D81E09E
:1002900090E04617570710F480E090E0869F9001A9
:1002A000879F300D969F300D11241A01221A330AB0
:1002B0002091D9014091D801A0FD02C0822F02C037
:1002C000842F422FCC24DD247601898749805A80EF
:1002D0006B807C80089441085108610871084A8746
:1002E00089809A80AB80BC8081E090E0A0E0B0E0A3
:1002F00088229922AA22BB2242C0B19A1093890077
:1003000000938800B19BFECF898561E00E94490976
:10031000B19AAD81BE81B0938900A0938800B19B52
:10032000FECF898560E00E944909C414D504E60423
:10033000F70428F081149104A104B104C1F4B19A26
:10034000EF81F885F0938900E0938800B19BFECFA0
:100350008A8561E00E944909B19A30928900209211
:100360008800B19BFECF8A8560E00E94490982E047
:1003700090E0A0E0B0E0C80ED91EEA1EFB1E898105
:100380009A81AB81BC81C816D906EA06FB0608F43F
:10039000B4CF2A960FB6F894DEBF0FBECDBFDF9163
:1003A000CF911F910F91FF90EF90DF90CF90BF9072
:1003B000AF909F908F907F906F905F904F903F9005
:1003C0002F9008951092B00081E08093B1001092B8
:1003D00070000895DC01CB0188569040A040B040E9
:1003E000492F5A2F6B2F772780951092B200B89A19
:1003F0008093B20080E090E0A0E0B0E04F5F5F4FFC
:100400006F4F7F4F07C027B320FFFDCFB89A0196EB
:10041000A11DB11D84179507A607B707A0F308957E
:100420001092800029E12093810010928200880FB1
:10043000991F0197909387008093860010926F0018
:1004400090938B0080938A00109285001092840014
:1004500008951F920F920FB60F9211240F931F93BE
:100460002F933F934F935F936F937F938F939F93BC
:10047000AF93BF93CF93DF93EF93FF93C091780037
:10048000D09179008091460290914702A091480254
:10049000B09149020196A11DB11D8093460290932F
:1004A0004702A0934802B09349020091460210917E
:1004B000470220914802309149028091F4019091C5
:1004C000F501A091F601B091F701AC01BD014150D9
:1004D000504060407040041715072607370729F47D
:1004E00020917A002F7D20937A004091460250910E
:1004F0004702609148027091490284179507A60748
:10050000B70780F1E0915C02F0915D023D2F20E0A1
:100510008C2F90E0822B932BEE0FFF1FE65BFD4F9D
:100520009183808380915C0290915D02019690930B
:100530005D0280935C0220915C0230915D028091AB
:100540005C0290915D02883091051CF088E090E09B
:1005500002C080E090E0A901481B590B50935D0256
:1005600040935C02FF91EF91DF91CF91BF91AF91EA
:100570009F918F917F916F915F914F913F912F91BB
:100580001F910F910F900FBE0F901F901895109212
:100590005B0210925A0210925D0210925C0210925D
:1005A0004602109247021092480210924902EAE76E
:1005B000F0E0808180628083808180648083089500
:1005C00080E00E94C808EBE7F0E080818083EAE7E2
:1005D000F0E0808188608083E4E6F0E080818160E3
:1005E00080830895CF93C2E08C2F61E00E941509AB
:1005F0008C2F60E00E944909CF5FCD30A9F789E0D8
:1006000060E00E94150987E692E040E452E46FE062
:1006100070E00E94B70D8091640080688093640050
:100620008091640084608093640080B7806880BF9C
:1006300014BE88E10FB6F8948093600010926000B9
:100640000FBE0E94E2010E94E002CF910895AF9296
:10065000BF92CF92DF92EF92FF920F931F93CF93AF
:10066000DF935C018B01C0E0D0E027C087E692E019
:100670000E94980C009761F018C00894C108D10836
:10068000E108F108C114D104E104F10441F41AC0F5
:1006900050EAC52E5CE2D52E50E1E52EF12C87E61E
:1006A00092E00E94980C009741F387E692E00E9446
:1006B000C50CF80181938F012196CA15DB05B4F2B0
:1006C00081E001C080E0DF91CF911F910F91FF90F9
:1006D000EF90DF90CF90BF90AF900895CF93DF93CE
:1006E00000D0CDB7DEB79C011A821982DB01FE0172
:1006F000319680E090E003C04D91419301968217BE
:100700009307D4F389819A810F900F90DF91CF9155
:100710000895CF93DF9300D000D0CDB7DEB79C0112
:1007200019821A821B821C82DB01FE01319680E055
:1007300090E003C04D914193019682179307D4F343
:1007400069817A818B819C810F900F900F900F901F
:10075000DF91CF9108952F923F924F925F926F92C7
:100760007F928F929F92AF92BF92CF92DF92EF9241
:10077000FF920F931F93CF93DF9387E692E00E943F
:10078000980C009739F087E692E00E94C50C00971C
:10079000A1F307C065E070E080E090E00E94370BB5
:1007A000ECCF8930910509F4F9C08E30910529F01C
:1007B0008130910509F0D3C405C087E692E060E07E
:1007C00071E0D1C410923A0210923B0210923C02A6
:1007D00010923D0210922C0210922D0210922E02C5
:1007E00010922F02109228021092290210922A02CF
:1007F00010922B028091440290914502009711F0D3
:100800000E942A0A10923102109230021092F001D6
:100810001092F1011092F2011092F30182E090E047
:1008200060E372E00E942703882331F487E692E0B8
:1008300061E171E00E94030C84E090E060EF71E000
:100840000E942703882329F487E692E063E371E09E
:100850008AC480913002909131020E94A9099C01C2
:10086000909345028093440287E692E0211531057A
:1008700019F468E571E077C467E671E00E94030C43
:100880006091440270914502809130029091310252
:100890000E942703882359F0C0914402D091450259
:1008A0000091300210913102E0E0F0E04EC087E6A6
:1008B00092E069E771E00E94030C809144029091FC
:1008C00045020E942A0A51C431967E01899190E026
:1008D000E89F9001E99F300DF89F300D1124C90168
:1008E000AA2797FDA095BA2F840F951FA61FB71FA3
:1008F00080932C0290932D02A0932E02B0932F028E
:100900009F012F5F3F4FD7018C9190E0289FA0015E
:10091000299F500D389F500D1124662757FD609573
:10092000762F8091280290912902A0912A02B091FD
:100930002B02840F951FA61FB71F80932802909348
:100940002902A0932A02B0932B0240912C025091CD
:100950002D0260912E0270912F02E017F10709F02D
:10096000B3CF87E692E02AE030E00E94860C409107
:1009700028025091290260912A0270912B0287E689
:1009800092E02AE030E00E94860CE8E0F2E011926A
:100990001192B2E0E832FB07D1F7E7C310923502BB
:1009A000109234021092330210923202809144026B
:1009B000909145029093430280934202009789F000
:1009C00087E692E063E971E00E94030CF894F8E690
:1009D0004F2EF1E05F2E612C712CA4EB2A2E312CCE
:1009E00005C087E692E06AEA71E0BDC3E09042028A
:1009F000F0904302E7018991D0934302C0934202F1
:100A0000873009F4D2C0883090F48330A9F1843063
:100A100038F4882309F4D6C2823009F09EC31FC07F
:100A2000853009F483C0863008F020C35CC08C3068
:100A300009F44DC38D3050F48A3009F4DFC28B3095
:100A400008F030C3883009F088C338C18F3079F19D
:100A5000803109F455C38D3009F07FC34DC384E064
:100A600090E0BE010E94890397012B5F3F4F3093B6
:100A700043022093420218C082E090E0BE010E942F
:100A80006E0397012D5F3F4F309343022093420244
:100A9000FC01BF01882777FD8095982F20E83EE371
:100AA00040E050E00E947D0E0E94EA0151C381E0C7
:100AB00090E0BE010E946E03C82FB7016E5F7F4FAA
:100AC000709343026093420281E090E00E946E03C3
:100AD00097012D5F3F4F3093430220934202609174
:100AE0003A02680F1EC081E090E0BE010E946E03D2
:100AF000C82FB7016E5F7F4F70934302609342022D
:100B000081E090E00E946E03182F97012D5F3F4F08
:100B100030934302209342028C2F61E00E9415091A
:100B2000612F61708C2F0E94490912C381E090E00F
:100B3000BE010E946E03182FB7016E5F7F4F709346
:100B400043026093420281E090E00E946E036C01D8
:100B500097012D5F3F4F3093430220934202812F34
:100B600060E00E941509812F0E948009EC01F1E0EC
:100B7000CF16D10441F404C0812F0E948009EC01FA
:100B80002097D1F70BC022E0C216D1042CF406C086
:100B9000812F0E948009EC012097D1F3812F0E94C0
:100BA0008009C817D907D1F3D3C281E090E0BE0114
:100BB0000E946E03EC01B7016E5F7F4F709343029A
:100BC0006093420280903A0290903B02A0903C02D7
:100BD000B0903D02843B91050CF043C081E090E071
:100BE0000E946E038C01B7016D5F7F4F70934302CB
:100BF0006093420281E090E00E946E0397012C5FB7
:100C00003F4F30934302209342029C01442737FD1B
:100C10004095542FC501B4010E94C30E69017A01A9
:100C20009801220F331F442737FD4095542FC701E9
:100C3000B6010E947D0EAB01BC01CE01880F991F49
:100C4000AA2797FDA095BA2F480F591F6A1F7B1F2F
:100C5000CB01BA01A30192010E94C30EE62EF72E2A
:100C60001BC090E0EC01CC0FDD1FC85FDD4F88504A
:100C70009E4FDC012C9130E040E050E0C501B40112
:100C80000E94C30EDC01CB01E881F981E80FF91F56
:100C9000E080FF24EE0CFF1CC0914202D091430281
:100CA00082E090E0BE010E9489032296D093430225
:100CB000C0934202A7010E948C004AC28091640046
:100CC0008E7F8093640080917A00806480937A00A4
:100CD00081E090E0BE010E946E038C01BE016F5F57
:100CE0007F4F709343026093420280903A0290904B
:100CF0003B02A0903C02B0903D02843B91050CF079
:100D000043C081E090E00E946E03EC01B7016D5F8B
:100D10007F4F709343026093420281E090E00E9413
:100D20006E0397012C5F3F4F3093430220934202A2
:100D30009C01442737FD4095542FC501B4010E9402
:100D4000C30E69017A019E01220F331F442737FD2C
:100D50004095542FC701B6010E947D0EAB01BC0126
:100D6000C801880F991FAA2797FDA095BA2F480F91
:100D7000591F6A1F7B1FCB01BA01A30192010E9478
:100D8000C30EE62EF72E1BC090E0EC01CC0FDD1F4A
:100D9000C85FDD4F88509E4FFC01208130E040E06D
:100DA00050E0C501B4010E94C30EDC01CB01E88113
:100DB000F981E80FF91FE080FF24EE0CFF1CC091C1
:100DC0004202D091430284E090E0BE010E94890378
:100DD000DC01CB018093F4019093F501A093F6011F
:100DE000B093F7012496D0934302C093420287E662
:100DF00092E06BEB71E00E94030C87E692E064EFF7
:100E000071E044E050E00E94A80B80917A0086FDDA
:100E1000FCCFC0903402D0903502C701B1010E94CE
:100E2000B00EC114D10409F452C0C62F862F90E031
:100E30002CE43FEF829FB001839F700D929F700D55
:100E400011246E0D7F1D882777FD8095982F9601C0
:100E500040E050E00E947D0E24EB30E040E050E0A6
:100E60000E94C30EB90140918400509185004853FF
:100E70005F4F81E090E020913202309133024217BF
:100E8000530710F480E090E08C9D90018D9D300D13
:100E90009C9D300D1124421B530BCB018C0D9D1DCD
:100EA0004817590728F44617570710F0CF5FBC01C1
:100EB000C0FD03C0C1E0D0E002C0CFEFDFEFB19AC8
:100EC0007093890060938800B19BFECF04C0EB0152
:100ED000CC0FDD1F219778940E94C702CC24DD241B
:100EE000760180915C0290915D0220915A023091CE
:100EF0005B028217930709F450C0A0915A02B09187
:100F00005B02E0915A02F0915B02EE0FFF1FE65B7D
:100F1000FD4F80819181805092408C9F90018D9FE8
:100F2000300D9C9F300D1124AA0FBB1FA65BBD4F37
:100F300011963C932E9360915A0270915B02660F5A
:100F4000771F665B7D4F87E692E042E050E00E94AB
:100F5000A80B80915A0290915B02019690935B02DC
:100F600080935A0220915A0230915B0280915A027A
:100F700090915B02883091051CF088E090E002C0FF
:100F800080E090E0281B390B30935B0220935A02DB
:100F90000894C11CD11CE11CF11C8091F4019091BA
:100FA000F501A091F601B091F701C816D906EA063D
:100FB000FB0608F496CF8091640081608093640002
:100FC000F894C6C080913A0290913B02A0913C02F5
:100FD000B0913D020196A11DB11D80933A029093FC
:100FE0003B02A0933C02B0933D0287E692E06FEB98
:100FF00071E00E94030C81E090E0ACC082E090E0E0
:10100000BE010E946E039093390280933802B701AB
:101010006D5F7F4F709343026093420282E090E0E5
:101020000E946E039093370280933602B7016B5F84
:101030007F4F709343026093420282E090E00E94EF
:101040006E0390933502809334029701295F3F4FDE
:1010500030934302209342029C01220F331F3093AE
:101060003302209332020E94100272C081E090E0AD
:10107000BE010E946E038093D901B7016E5F7F4F5E
:10108000709343026093420281E090E00E946E03FD
:101090008093D80197012D5F3F4F309343022093F7
:1010A000420256C082E090E0BE010E946E0390931F
:1010B0003F0280933E0297012D5F3F4F30934302E2
:1010C00020934202309341022093400241C080911C
:1010D0003E0290913F02019790933F0280933E021F
:1010E00018161906ACF58091400290914102909338
:1010F0004302809342022CC0B29AB29BFECF28C01A
:1011000081E090E0BE010E946E03C82FB7016E5FC0
:101110007F4F709343026093420281E090E00E940F
:101120006E03A3E0B0E0EA0EFB1E2C2F30E0F901C5
:10113000EE0FFF1FE85FFD4FF182E08228503E4F27
:10114000F9018083E80EF11CF0924302E092420222
:1011500080E090E0009709F449CC789406C087E6D7
:1011600092E063EC71E00E94030CDF91CF911F913C
:101170000F91FF90EF90DF90CF90BF90AF909F9036
:101180008F907F906F905F904F903F902F90089539
:101190008E3008F08E5087709091DA019295990FF9
:1011A000990F907C982B90937C0080917A008064BA
:1011B00080937A0080917A0086FDFCCF8091780040
:1011C00090917900392F20E090E0822B932B0895A5
:1011D000833071F0843028F48130A1F0823021F521
:1011E00014C08630B1F08730D1F08430E9F404C007
:1011F000809180008F7703C0809180008F7D8093E5
:101200008000089584B58F7702C084B58F7D84BD3A
:1012100008958091B0008F778093B00008958091F9
:10122000B0008F7D8093B000089590E0FC01E458F9
:10123000FF4F249180579F4FFC018491882341F1F7
:1012400090E0880F991FFC01E854FF4F459154919D
:10125000DA0182559F4FFC0185919491FC019FB763
:10126000F8948C91662331F4209582238C938081AD
:10127000822308C0623049F4322F309583238C9347
:101280008081822B80839FBF0895822B8C939FBF88
:1012900008950F931F93CF93DF930F92CDB7DEB7CF
:1012A000282F30E0F901E859FF4F8491F901E45803
:1012B000FF4F1491F901E057FF4F04910023D1F043
:1012C000882321F069830E94E8086981E02FF0E01B
:1012D000EE0FFF1FE255FF4F85919491DC019FB700
:1012E000F8948C91662319F41095812301C0812B09
:1012F0008C939FBF0F90DF91CF911F910F91089515
:10130000CF93DF93282F30E0F901E859FF4F849104
:10131000F901E458FF4FC491F901E057FF4FD49110
:10132000DD2391F0882311F00E94E808ED2FF0E012
:10133000EE0FFF1FEC55FF4F85919491FC0120812A
:101340002C2381E090E011F480E090E0DF91CF91D8
:101350000895CF93DF93AC018230910510F442E001
:1013600050E0E0911103F091120320E030E0A0E0A2
:10137000B0E024C08081918184179507D0F0841754
:10138000950771F482819381109729F013969C93AD
:101390008E9312972CC0909312038093110327C051
:1013A0002115310519F08217930718F49C01BD012E
:1013B000EF0192818381DF01E92FF82F3097D1F679
:1013C00021153105F9F0C901841B950B8430910575
:1013D00080F48A819B816115710521F0FB01938363
:1013E000828304C09093120380931103FE0132960E
:1013F0002DC0FE01E80FF91F419351930297998385
:10140000888324C02DB73EB728573040E091DD01D6
:10141000F091DE01E217F307B8F42E1B3F0B2417FF
:10142000350790F0CA0102962817390768F08E0F29
:101430009F1F9093DE018093DD019093DC018093E8
:10144000DB014193519302C0E0E0F0E0CF01DF9176
:10145000CF9108950F931F93CF93DF939C01009733
:1014600009F48CC0DC01129713961C921E921297FD
:1014700060911103709112036115710589F48D91CA
:101480009C911197820F931F2091DD013091DE0115
:101490002817390769F5B093DE01A093DD016EC00E
:1014A000FB0140E050E001C0FC01EA17FB0730F40B
:1014B00082819381AF010097B9F71FC0E90122979C
:1014C000FB83EA8308811981C901800F911F8E1760
:1014D0009F0759F480819181800F911F0296998313
:1014E0008883828193819B838A834115510529F4E6
:1014F000B0931203A093110341C0FA01B383A283F6
:10150000C191D191EC0FFD1FAE17BF0781F4F90116
:10151000929182918C0F9D1F0296DA0111969C93F5
:101520008E938281938113969C938E931297E0E021
:10153000F0E002C0FB01BC01DB0112968D919C9191
:1015400013970097B9F7CB0102962D913C91119713
:10155000820F931F2091DD013091DE01281739079A
:1015600069F4309729F4109212031092110302C00B
:10157000138212827093DE016093DD01DF91CF91BF
:101580001F910F9108951F920F920FB60F92112481
:101590002F933F938F939F93AF93BF9380915E025E
:1015A00090915F02A0916002B09161023091660259
:1015B000232F2D5F2D3720F40196A11DB11D05C0ED
:1015C000232F2A570296A11DB11D209366028093F6
:1015D0005E0290935F02A0936002B09361028091DB
:1015E000620290916302A0916402B091650201963B
:1015F000A11DB11D8093620290936302A0936402C7
:10160000B0936502BF91AF919F918F913F912F91C0
:101610000F900FBE0F901F9018950F931F939FB7B9
:10162000F89400916202109163022091640230915B
:10163000650286B5A89B06C08F3F21F00F5F1F4F44
:101640002F4F3F4F9FBF322F212F102F0027080F02
:10165000111D211D311D42E0000F111F221F331FDC
:101660004A95D1F7B801C9011F910F910895CF9202
:10167000DF92EF92FF92CF93DF936B017C010E9488
:101680000D0BDC01CB01EC010FC00E940D0B6C1B9C
:101690007D0B83E0683E780738F00894C108D108D4
:1016A000E108F108C851DC4FC114D104E104F10490
:1016B00061F7DF91CF91FF90EF90DF90CF90089589
:1016C000789484B5826084BD84B5816084BD85B51D
:1016D000826085BD85B5816085BDEEE6F0E08081E4
:1016E00081608083E1E8F0E0108280818260808305
:1016F000808181608083E0E8F0E080818160808388
:10170000E1EBF0E0808184608083E0EBF0E08081B9
:1017100081608083EAE7F0E080818460808380815B
:101720008260808380818160808380818068808303
:101730001092C10008950E94600B0E94F202C3E75C
:10174000DDE00E94AB032097E1F30E94730DF9CF17
:10175000CF92DF92EF92FF920F931F93CF93DF937D
:101760006C017B01EA0100E010E00EC0D7016D9131
:101770007D01D601ED91FC910190F081E02DC60133
:101780000995080F191F2197209781F7C801DF914C
:10179000CF911F910F91FF90EF90DF90CF90089520
:1017A0006115710589F0DB010D900020E9F7AD01AD
:1017B00041505040461B570BDC01ED91FC910280DB
:1017C000F381E02D0995089580E090E00895DC0113
:1017D000ED91FC910190F081E02D099508950F9312
:1017E0001F93CF93DF938C016DE00E94E70BEC0118
:1017F000C8016AE00E94E70B8C0F9D1FDF91CF911B
:101800001F910F9108950F931F93CF93DF938C0136
:101810000E94D00BEC01C8010E94EF0B8C0F9D1FA2
:10182000DF91CF911F910F9108954F925F926F9228
:101830007F92AF92BF92CF92DF92EF92FF920F937F
:101840001F93CF93DF93CDB7DEB7A1970FB6F89470
:10185000DEBF0FBECDBF5C01E42ECB01F22E19A27C
:1018600021E02F1510F03AE0F32E21E2C22ED12C08
:10187000CC0EDD1E4F2C55246624772403C0E02EA9
:10188000512FC9016E2D752FA30192010E94C30E25
:1018900089019A01F09E802D1124E81A8E2D08945A
:1018A000C108D1088A3014F4805D01C0895CF6015A
:1018B0008083011511052105310509F7C501B60120
:1018C0000E94D00BA1960FB6F894DEBF0FBECDBF1D
:1018D000DF91CF911F910F91FF90EF90DF90CF900C
:1018E000BF90AF907F906F905F904F9008952115BB
:1018F000310549F4DC01ED91FC910190F081E02D7E
:10190000642F099508950E94150C08950F931F9355
:10191000CF93DF938C010E94770CEC01C8010E94E9
:10192000EF0B8C0F9D1FDF91CF911F910F910895A9
:10193000FC0124853585F901E05CFF4F80819181B0
:101940002E5B3F4FF90120813181821B930B8F73F6
:1019500090700895FC0144855585FA01E05CFF4FC5
:1019600080819181FA01EE5BFF4F208131818217E6
:10197000930741F00190F081E02DE40FF51F808185
:1019800090E008958FEF9FEF0895FC014485558501
:10199000FA01E05CFF4F20813181FA01EE5BFF4FDD
:1019A000808191812817390779F0A081B181A40F36
:1019B000B51F8C91208131812F5F3F4F2F73307085
:1019C0003183208390E008958FEF9FEF0895FC010D
:1019D00081A1882329F0A489B5898C9186FFFBCF4A
:1019E00011A20895CF93DF93DC011E964D915C9177
:1019F0001F97EA01C05CDF4F288139812F5F3F4F7D
:101A00002F733070FA01EE5BFF4F808191812817B0
:101A10003907D9F3E881F981E40FF51F60831E9639
:101A2000ED91FC911F97E05CFF4F31832083569628
:101A3000ED91FC915797208181E090E05F960C90AA
:101A40005F9702C0880F991F0A94E2F7282B208322
:101A500081E091968C9391975496ED91FC915597D6
:101A600080818064808381E090E0DF91CF91089550
:101A700008951F920F920FB60F9211242F933F9348
:101A80004F938F939F93EF93FF938091C00082FDBC
:101A90001CC04091C60080910D0390910E030196E9
:101AA0008F73907020910F0330911003821793076A
:101AB00071F0E0910D03F0910E03E353FD4F40836D
:101AC00090930E0380930D0302C08091C600FF9196
:101AD000EF919F918F914F913F912F910F900FBE5A
:101AE0000F901F90189587E692E00E94980C00973F
:101AF00011F00E94380D08951F920F920FB60F92A9
:101B000011242F933F938F939F93EF93FF932091F3
:101B1000C9023091CA028091CB029091CC02281761
:101B2000390731F48091C1008F7D8093C10014C0CA
:101B3000E091CB02F091CC02E757FD4F20818091DC
:101B4000CB029091CC0201968F7390709093CC024F
:101B50008093CB022093C600FF91EF919F918F91CC
:101B60003F912F910F900FBE0F901F901895BF922D
:101B7000CF92DF92EF92FF920F931F93CF93DF9359
:101B8000EC016A017B01BB24B394403081EE58071D
:101B900080E0680780E0780749F4BB24EC89FD8980
:101BA000108260E874E88EE190E00FC0EC89FD8956
:101BB00081E090E008A002C0880F991F0A94E2F724
:101BC000808360E079E08DE390E0A70196010E94B8
:101BD000C30E89019A0101501040204030403695D3
:101BE00027951795079580E10030180710F0BB2066
:101BF000A1F6E889F9891083EA89FB89008319A293
:101C0000EE89FF89408121E030E0C9010C8C02C0DF
:101C1000880F991F0A94E2F7482B4083EE89FF89C9
:101C20004081C9010D8C02C0880F991F0A94E2F708
:101C3000482B4083EE89FF894081C9010E8C02C088
:101C4000880F991F0A94E2F7482B4083EE89FF8999
:101C500080810F8C02C0220F331F0A94E2F7209577
:101C600028232083DF91CF911F910F91FF90EF9058
:101C7000DF90CF90BF90089510926A02109269028F
:101C800088EE93E0A0E0B0E080936B0290936C024A
:101C9000A0936D02B0936E02E9E6F2E083EE91E06C
:101CA000929382938DEC92E09587848789E892E005
:101CB0009787868785EC90E0918B808B84EC90E011
:101CC000938B828B80EC90E0958B848B81EC90E001
:101CD000978B868B82EC90E0918F808F86EC90E0E2
:101CE000938F828F84E0848F83E0858F87E0868F57
:101CF00085E0878F81E080A30895629FD001739F64
:101D0000F001829FE00DF11D649FE00DF11D929F97
:101D1000F00D839FF00D749FF00D659FF00D9927D6
:101D2000729FB00DE11DF91F639FB00DE11DF91FFA
:101D3000BD01CF0111240895AA1BBB1B51E107C0AF
:101D4000AA1FBB1FA617B70710F0A61BB70B881F4B
:101D5000991F5A95A9F780959095BC01CD010895DA
:101D600097FB092E07260AD077FD04D0E5DF06D0C1
:101D700000201AF4709561957F4F0895F6F79095BD
:101D800081959F4F0895A1E21A2EAA1BBB1BFD014E
:101D90000DC0AA1FBB1FEE1FFF1FA217B307E4074A
:101DA000F50720F0A21BB30BE40BF50B661F771FA2
:101DB000881F991F1A9469F7609570958095909582
:101DC0009B01AC01BD01CF010895EE0FFF1F0590EF
:0A1DD000F491E02D0994F894FFCF80
:101DDA00414E4D522076302E392C2052656164795D
:101DEA000054696D6564206F757420726561646959
:101DFA006E67206E756D626572206F6620627974F7
:101E0A0065730054696D6564206F7574207265612D
:101E1A0064696E67206E756D626572206F662072E6
:101E2A00656164696E6773004D616C6C6F632066EF
:101E3A0061696C656421004D616C6C6F6320737518
:101E4A00636365737366756C0054696D6564206FAE
:101E5A0075742072656164696E672070726F67724B
:101E6A00616D00457865637574696E6720696E7384
:101E7A007472756374696F6E7300457865637574FF
:101E8A00696F6E206661696C65640044415400455F
:101E9A004F5000556E6B6E6F776E20496E73747279
:101EAA00756374696F6E21000302016400130300F5
:101EBA00000000F20CA80B980CC50CAA0CE70C0049
:00000001FF
